{
  "_format": "hh-sol-artifact-1",
  "contractName": "Game",
  "sourceName": "contracts/Game.sol",
  "abi": [
    {
      "inputs": [
        {
          "internalType": "address",
          "name": "_teamAddress",
          "type": "address"
        }
      ],
      "stateMutability": "nonpayable",
      "type": "constructor"
    },
    {
      "inputs": [],
      "name": "AbandonedGameTimeElapsed",
      "type": "error"
    },
    {
      "inputs": [],
      "name": "AbandonedGameTimeNotElapsed",
      "type": "error"
    },
    {
      "inputs": [],
      "name": "AbandonedGameUserShareAlreadyClaimed",
      "type": "error"
    },
    {
      "inputs": [],
      "name": "EmptyPrizePool",
      "type": "error"
    },
    {
      "inputs": [],
      "name": "GameHasEnded",
      "type": "error"
    },
    {
      "inputs": [],
      "name": "GameNotEnded",
      "type": "error"
    },
    {
      "inputs": [],
      "name": "InsufficientFeePayment",
      "type": "error"
    },
    {
      "inputs": [],
      "name": "InvalidTeamAddress",
      "type": "error"
    },
    {
      "inputs": [],
      "name": "InvalidWinnerAddress",
      "type": "error"
    },
    {
      "inputs": [],
      "name": "NoFeePaymentMade",
      "type": "error"
    },
    {
      "inputs": [],
      "name": "NoTeamShareToWithdraw",
      "type": "error"
    },
    {
      "inputs": [],
      "name": "NoUnclaimedShares",
      "type": "error"
    },
    {
      "inputs": [],
      "name": "NotOwner",
      "type": "error"
    },
    {
      "inputs": [],
      "name": "NotTeamAddress",
      "type": "error"
    },
    {
      "inputs": [],
      "name": "ReentrancyGuardReentrantCall",
      "type": "error"
    },
    {
      "inputs": [],
      "name": "TeamShareWithdrawFailed",
      "type": "error"
    },
    {
      "inputs": [],
      "name": "UserShareAlreadyClaimed",
      "type": "error"
    },
    {
      "anonymous": false,
      "inputs": [
        {
          "indexed": true,
          "internalType": "address",
          "name": "userAddress",
          "type": "address"
        },
        {
          "indexed": false,
          "internalType": "uint256",
          "name": "amount",
          "type": "uint256"
        },
        {
          "indexed": false,
          "internalType": "bool",
          "name": "isLastPlayer",
          "type": "bool"
        }
      ],
      "name": "AbandonedGameUserShareClaimed",
      "type": "event"
    },
    {
      "anonymous": false,
      "inputs": [
        {
          "indexed": false,
          "internalType": "uint256",
          "name": "newFee",
          "type": "uint256"
        }
      ],
      "name": "FeeIncreased",
      "type": "event"
    },
    {
      "anonymous": false,
      "inputs": [
        {
          "indexed": true,
          "internalType": "address",
          "name": "user",
          "type": "address"
        },
        {
          "indexed": false,
          "internalType": "uint256",
          "name": "amount",
          "type": "uint256"
        },
        {
          "indexed": false,
          "internalType": "uint256",
          "name": "timestamp",
          "type": "uint256"
        },
        {
          "indexed": false,
          "internalType": "uint256",
          "name": "userTotalPayments",
          "type": "uint256"
        }
      ],
      "name": "FeePaymentReceived",
      "type": "event"
    },
    {
      "anonymous": false,
      "inputs": [],
      "name": "GameAbandoned",
      "type": "event"
    },
    {
      "anonymous": false,
      "inputs": [],
      "name": "GameEnded",
      "type": "event"
    },
    {
      "anonymous": false,
      "inputs": [
        {
          "indexed": false,
          "internalType": "uint256",
          "name": "amount",
          "type": "uint256"
        }
      ],
      "name": "OwnerFundsTransferred",
      "type": "event"
    },
    {
      "anonymous": false,
      "inputs": [
        {
          "indexed": false,
          "internalType": "uint256",
          "name": "amount",
          "type": "uint256"
        },
        {
          "indexed": false,
          "internalType": "address",
          "name": "winnerAddress",
          "type": "address"
        }
      ],
      "name": "PrizeAwarded",
      "type": "event"
    },
    {
      "anonymous": false,
      "inputs": [
        {
          "indexed": false,
          "internalType": "uint256",
          "name": "newPrizePool",
          "type": "uint256"
        }
      ],
      "name": "PrizePoolIncreased",
      "type": "event"
    },
    {
      "anonymous": false,
      "inputs": [
        {
          "indexed": false,
          "internalType": "uint256",
          "name": "amount",
          "type": "uint256"
        }
      ],
      "name": "TeamShareIncreased",
      "type": "event"
    },
    {
      "anonymous": false,
      "inputs": [
        {
          "indexed": false,
          "internalType": "uint256",
          "name": "amount",
          "type": "uint256"
        }
      ],
      "name": "TeamShareWithdrawn",
      "type": "event"
    },
    {
      "anonymous": false,
      "inputs": [
        {
          "indexed": true,
          "internalType": "address",
          "name": "userAddress",
          "type": "address"
        },
        {
          "indexed": false,
          "internalType": "uint256",
          "name": "amount",
          "type": "uint256"
        }
      ],
      "name": "UnclaimedUserShareAdded",
      "type": "event"
    },
    {
      "anonymous": false,
      "inputs": [
        {
          "indexed": true,
          "internalType": "address",
          "name": "userAddress",
          "type": "address"
        },
        {
          "indexed": false,
          "internalType": "uint256",
          "name": "amount",
          "type": "uint256"
        }
      ],
      "name": "UserShareSent",
      "type": "event"
    },
    {
      "anonymous": false,
      "inputs": [
        {
          "indexed": true,
          "internalType": "address",
          "name": "winnerAddress",
          "type": "address"
        }
      ],
      "name": "WinnerAdded",
      "type": "event"
    },
    {
      "inputs": [],
      "name": "abandonedGameTimeElapsed",
      "outputs": [
        {
          "internalType": "bool",
          "name": "",
          "type": "bool"
        }
      ],
      "stateMutability": "view",
      "type": "function"
    },
    {
      "inputs": [],
      "name": "awardPrize",
      "outputs": [],
      "stateMutability": "nonpayable",
      "type": "function"
    },
    {
      "inputs": [],
      "name": "claimAbandonedGameShare",
      "outputs": [],
      "stateMutability": "nonpayable",
      "type": "function"
    },
    {
      "inputs": [],
      "name": "claimUserShare",
      "outputs": [],
      "stateMutability": "nonpayable",
      "type": "function"
    },
    {
      "inputs": [
        {
          "internalType": "address",
          "name": "",
          "type": "address"
        }
      ],
      "name": "claimedAbandonedGameUserShares",
      "outputs": [
        {
          "internalType": "bool",
          "name": "",
          "type": "bool"
        }
      ],
      "stateMutability": "view",
      "type": "function"
    },
    {
      "inputs": [],
      "name": "currentFee",
      "outputs": [
        {
          "internalType": "uint256",
          "name": "",
          "type": "uint256"
        }
      ],
      "stateMutability": "view",
      "type": "function"
    },
    {
      "inputs": [],
      "name": "deploymentTime",
      "outputs": [
        {
          "internalType": "uint256",
          "name": "",
          "type": "uint256"
        }
      ],
      "stateMutability": "view",
      "type": "function"
    },
    {
      "inputs": [],
      "name": "gameEnded",
      "outputs": [
        {
          "internalType": "bool",
          "name": "",
          "type": "bool"
        }
      ],
      "stateMutability": "view",
      "type": "function"
    },
    {
      "inputs": [],
      "name": "lastPaymentTime",
      "outputs": [
        {
          "internalType": "uint256",
          "name": "",
          "type": "uint256"
        }
      ],
      "stateMutability": "view",
      "type": "function"
    },
    {
      "inputs": [],
      "name": "lastPlayerAddress",
      "outputs": [
        {
          "internalType": "address",
          "name": "",
          "type": "address"
        }
      ],
      "stateMutability": "view",
      "type": "function"
    },
    {
      "inputs": [],
      "name": "owner",
      "outputs": [
        {
          "internalType": "address",
          "name": "",
          "type": "address"
        }
      ],
      "stateMutability": "view",
      "type": "function"
    },
    {
      "inputs": [],
      "name": "payFee",
      "outputs": [],
      "stateMutability": "payable",
      "type": "function"
    },
    {
      "inputs": [],
      "name": "prizePool",
      "outputs": [
        {
          "internalType": "uint256",
          "name": "",
          "type": "uint256"
        }
      ],
      "stateMutability": "view",
      "type": "function"
    },
    {
      "inputs": [
        {
          "internalType": "address",
          "name": "_winnerAddress",
          "type": "address"
        }
      ],
      "name": "setWinner",
      "outputs": [],
      "stateMutability": "nonpayable",
      "type": "function"
    },
    {
      "inputs": [],
      "name": "teamAddress",
      "outputs": [
        {
          "internalType": "address",
          "name": "",
          "type": "address"
        }
      ],
      "stateMutability": "view",
      "type": "function"
    },
    {
      "inputs": [],
      "name": "teamShare",
      "outputs": [
        {
          "internalType": "uint256",
          "name": "",
          "type": "uint256"
        }
      ],
      "stateMutability": "view",
      "type": "function"
    },
    {
      "inputs": [],
      "name": "totalPayments",
      "outputs": [
        {
          "internalType": "uint256",
          "name": "",
          "type": "uint256"
        }
      ],
      "stateMutability": "view",
      "type": "function"
    },
    {
      "inputs": [
        {
          "internalType": "address",
          "name": "",
          "type": "address"
        }
      ],
      "name": "totalPaymentsPerUser",
      "outputs": [
        {
          "internalType": "uint256",
          "name": "",
          "type": "uint256"
        }
      ],
      "stateMutability": "view",
      "type": "function"
    },
    {
      "inputs": [],
      "name": "transferOwnerFundsToContract",
      "outputs": [],
      "stateMutability": "payable",
      "type": "function"
    },
    {
      "inputs": [
        {
          "internalType": "address",
          "name": "",
          "type": "address"
        }
      ],
      "name": "unclaimedShares",
      "outputs": [
        {
          "internalType": "uint256",
          "name": "",
          "type": "uint256"
        }
      ],
      "stateMutability": "view",
      "type": "function"
    },
    {
      "inputs": [],
      "name": "winnerAddress",
      "outputs": [
        {
          "internalType": "address",
          "name": "",
          "type": "address"
        }
      ],
      "stateMutability": "view",
      "type": "function"
    },
    {
      "inputs": [],
      "name": "withdrawTeamShare",
      "outputs": [],
      "stateMutability": "nonpayable",
      "type": "function"
    }
  ],
  "bytecode": "0x60e060405234801561001057600080fd5b506040516110e33803806110e383398101604081905261002f9161008d565b60016000556001600160a01b03811661005a5760405162afb37360e31b815260040160405180910390fd5b6001600160a01b031660a0526001805460ff1916905566038d7ea4c68000600455336080524260c08190526008556100bd565b60006020828403121561009f57600080fd5b81516001600160a01b03811681146100b657600080fd5b9392505050565b60805160a05160c051610fe261010160003960006103a60152600081816101b40152610c3b0152600081816102db01528181610a360152610b160152610fe26000f3fe6080604052600436106101345760003560e01c8063719ce73e116100ab578063da3c300d1161006f578063da3c300d14610352578063dfe607f914610368578063ea6ef2fe1461037e578063ecda10f514610394578063ed7a4e0b146103c8578063ef6c7d53146103e857600080fd5b8063719ce73e146102b35780638da5cb5b146102c9578063907f6281146102fd578063ab504ad514610305578063d9fca7691461033257600080fd5b80633693c90b116100fd5780633693c90b1461021257806344030c061461023257806359f9b7f5146102475780635d3521aa1461027457806364ea00ea14610289578063659c67b81461029e57600080fd5b80625b4487146101395780631a32ad09146101625780631c75f085146101a257806329610252146101ee5780632f6fe396146101f8575b600080fd5b34801561014557600080fd5b5061014f60065481565b6040519081526020015b60405180910390f35b34801561016e57600080fd5b5061019261017d366004610ef8565b600b6020526000908152604090205460ff1681565b6040519015158152602001610159565b3480156101ae57600080fd5b506101d67f000000000000000000000000000000000000000000000000000000000000000081565b6040516001600160a01b039091168152602001610159565b6101f66103fd565b005b34801561020457600080fd5b506001546101929060ff1681565b34801561021e57600080fd5b506007546101d6906001600160a01b031681565b34801561023e57600080fd5b506101f6610668565b34801561025357600080fd5b5061014f610262366004610ef8565b60056020526000908152604090205481565b34801561028057600080fd5b506101f661074e565b34801561029557600080fd5b506101926107ca565b3480156102aa57600080fd5b506101f66107e5565b3480156102bf57600080fd5b5061014f60035481565b3480156102d557600080fd5b506101d67f000000000000000000000000000000000000000000000000000000000000000081565b6101f6610a23565b34801561031157600080fd5b5061014f610320366004610ef8565b600a6020526000908152604090205481565b34801561033e57600080fd5b506101f661034d366004610ef8565b610b03565b34801561035e57600080fd5b5061014f60045481565b34801561037457600080fd5b5061014f60085481565b34801561038a57600080fd5b5061014f60025481565b3480156103a057600080fd5b5061014f7f000000000000000000000000000000000000000000000000000000000000000081565b3480156103d457600080fd5b506009546101d6906001600160a01b031681565b3480156103f457600080fd5b506101f6610c28565b610405610d46565b60015460ff161561042957604051631f62703960e11b815260040160405180910390fd5b60045434101561044c5760405163481fdfa360e11b815260040160405180910390fd5b6104546107ca565b15610472576040516302bf6b7f60e41b815260040160405180910390fd5b600780546001600160a01b0319163390811790915542600855600090815260056020526040812080543492906104a9908490610f37565b9250508190555034600660008282546104c29190610f37565b909155505033600081815260056020526040908190205490517f0b2b35481806202749648918e29531a991ae6ccf74dcceed181a73eb6f59c62b9161051b91349142919283526020830191909152604082015260600190565b60405180910390a260006064610532346014610f4a565b61053c9190610f77565b905080600260008282546105509190610f37565b90915550600090506105628234610f99565b905080600360008282546105769190610f37565b90915550506002546040519081527f16bd99f8b1d41583978718bccceb087dcfda918ee27cf70397f8a5e4d85adf4f9060200160405180910390a17f3c231f64b16483d16ca517ccd881f34f86dd04ccc1305e65b854fe82189b76256003546040516105e491815260200190565b60405180910390a1600060646004546065028161060357610603610f61565b049050670de0b6b3a764000080821161061c578161061e565b805b60048190556040519081527ff1de636b64ecb852dae2587eb9a60a0d585ddcb43bbffa45ee9a4c9bab15b91f925060200190505b60405180910390a150506106666001600055565b565b610670610d46565b60015460ff1661069357604051638f86c6b360e01b815260040160405180910390fd5b6009546001600160a01b03166106bc576040516306046f3760e51b815260040160405180910390fd5b6003546000036106df5760405163375e6eb160e01b815260040160405180910390fd5b600380546000909155600954604080518381526001600160a01b0390921660208301527faf56fa404870302342d51888b499ecd396c0a7b6376898db9ff983ebd5ab7e8f910160405180910390a1600954610743906001600160a01b031682610d70565b506106666001600055565b610756610d46565b336000908152600a60205260408120549081900361078757604051637ce42a5960e01b815260040160405180910390fd5b336000818152600a60205260408120819055906107a49083610dde565b9050806107be57336000908152600a602052604090208290555b50506106666001600055565b60006008546203f4806107dd9190610f37565b421015905090565b6107ed610d46565b33600090815260056020526040812054900361081c576040516349525bb760e01b815260040160405180910390fd5b336000908152600b602052604090205460ff1615156001036108515760405163475fb58560e11b815260040160405180910390fd5b6003546000036108745760405163375e6eb160e01b815260040160405180910390fd5b61087c6107ca565b6108995760405163760a7a0360e11b815260040160405180910390fd5b60015460ff16610977576001805460ff1916811790556040517f1084d47e99647565312e58bba004b0fc3088c683fa22f3925f1cf5fb0955402990600090a16040517fb9244e6923f75139d9c8617448e8693a9bcc2a29131ffd008a2485da3262f44a90600090a1610909610e88565b600c81905560035410156109635760405162461bcd60e51b815260206004820152601960248201527f496e76616c69642073686172652063616c63756c6174696f6e00000000000000604482015260640160405180910390fd5b600c546003546109739190610f99565b600d555b6007546001600160a01b03163314600081156109965750600c546109c3565b60065433600090815260056020526040902054600d546109b69190610f4a565b6109c09190610f77565b90505b60408051828152831515602082015233917fe97304559413d51f52439792ff35733aac985dd14a5879662ba63389d3967f51910160405180910390a2336000818152600b60205260409020805460ff191660011790556107be9082610d70565b610a2b610d46565b336001600160a01b037f00000000000000000000000000000000000000000000000000000000000000001614610a74576040516330cd747160e01b815260040160405180910390fd5b3460026000828254610a869190610f37565b90915550506040513481527fa1aa3cf91990d2a9787a8ca9bc5aaa4731170416fb60d087dda6a42ce80db2a89060200160405180910390a17f16bd99f8b1d41583978718bccceb087dcfda918ee27cf70397f8a5e4d85adf4f600254604051610af191815260200190565b60405180910390a16106666001600055565b610b0b610d46565b336001600160a01b037f00000000000000000000000000000000000000000000000000000000000000001614610b54576040516330cd747160e01b815260040160405180910390fd5b60015460ff1615610b7857604051631f62703960e11b815260040160405180910390fd5b6001600160a01b038116610b9f576040516306046f3760e51b815260040160405180910390fd5b6001805460ff1916811790556040517f1084d47e99647565312e58bba004b0fc3088c683fa22f3925f1cf5fb0955402990600090a1600980546001600160a01b0319166001600160a01b0383169081179091556040517f4f8ebd4913b8e3fa77afde78e9f2728186892723d321b0f2fb145ba87c483ae790600090a2610c256001600055565b50565b610c30610d46565b336001600160a01b037f00000000000000000000000000000000000000000000000000000000000000001614610c7957604051638e6dc66160e01b815260040160405180910390fd5b600254600003610c9c57604051639eb4af9f60e01b815260040160405180910390fd5b60028054600091829055604051909190339083908381818185875af1925050503d8060008114610ce8576040519150601f19603f3d011682016040523d82523d6000602084013e610ced565b606091505b5050905080610d165781600281905550604051630520fb5760e51b815260040160405180910390fd5b6040518281527face932c1f50da6861f78bde010af3ad24c9cb64088d84ba041964b45174baa9790602001610652565b600260005403610d6957604051633ee5aeb560e01b815260040160405180910390fd5b6002600055565b6000610d7c8383610dde565b905080610dd9576001600160a01b0383166000818152600a602052604090819020849055517fae4331e1525a641b76ba741ee4143c55d2356e4fa4a4f27cd816865c37111fe490610dd09085815260200190565b60405180910390a25b505050565b600080836001600160a01b03168360405160006040518083038185875af1925050503d8060008114610e2c576040519150601f19603f3d011682016040523d82523d6000602084013e610e31565b606091505b505090508015610e7f57836001600160a01b03167fbd79fde48bb0e83cda58b16d70221d4b3b6282f4be56673056b6776836be731e84604051610e7691815260200190565b60405180910390a25b90505b92915050565b6000806064600354600a610e9c9190610f4a565b610ea69190610f77565b6006546007546001600160a01b03166000908152600560205260408120546003549394509092610ed69190610f4a565b610ee09190610f77565b9050808211610eef5780610ef1565b815b9250505090565b600060208284031215610f0a57600080fd5b81356001600160a01b0381168114610e7f57600080fd5b634e487b7160e01b600052601160045260246000fd5b80820180821115610e8257610e82610f21565b8082028115828204841417610e8257610e82610f21565b634e487b7160e01b600052601260045260246000fd5b600082610f9457634e487b7160e01b600052601260045260246000fd5b500490565b81810381811115610e8257610e82610f2156fea2646970667358221220c80e45628e35f63e1e602503448254eec85b3a0df46397acf5a7f6fa9bc4d09f64736f6c634300081c0033",
  "linkReferences": {},
  "deployedLinkReferences": {}
}